:020000040800F2
:1000000000000220797700089570000897700008BA
:10001000997000089B7000089D70000800000000A7
:10002000000000000000000000000000B14F0008C8
:100030009F7000080000000041500008A1700008F7
:10004000C9770008C9770008C9770008C977000890
:10005000C9770008C9770008C9770008C977000880
:10006000C9770008C9770008C9770008C977000870
:10007000C9770008C9770008C9770008C977000860
:10008000C9770008C9770008C97700080000000098
:10009000000000000000000000000000C977000818
:1000A000C9770008A5700008C9770008C97700085B
:1000B000C9770008C9770008C9770008C977000820
:1000C000C9770008C9770008C9770008C977000810
:1000D000C9770008C9770008C97700080000000048
:1000E000C9770008C9770008C97700080000000038
:1000F000000000000000000000000000C9770008B8
:1001000000000000C9770008C9770008C977000817
:1001100000000000000000000000000000000000DF
:10012000C9770008C9770008C9770008C9770008AF
:10013000C977000800000000000000000000000077
:10014000000000000000000000000000B170000886
:10015000C9770008C9770008C9770008C97700087F
:10016000C9770008C97700080000000000000000FF
:10017000000000000000000000000000000000007F
:1001800000000000C9770008000000000000000027
:08019000C9770008C9770008D7
:1001A00010B5054C237833B9044B13B10448AFF3B1
:1001B00000800123237010BD800300200000000098
:1001C0002084000808B5034B1BB103490348AFF373
:1001D000008008BD00000000840300202084000887
:1001E000034613F8012B002AFBD1181A0138704777
:1001F00001F0FF01102A2BDB10F0070F08D010F8D8
:10020000013B013A8B422DD010F0070F42B3F6D1DB
:10021000F0B441EA012141EA014122F007047FF0F4
:1002200000070023F0E80256083C85EA010586EA4B
:10023000010685FA47F5A3FA87F586FA47F6A5FA87
:1002400087F68EB9EED1F0BC01F0FF0102F0070293
:1002500032B110F8013B013A83EA010313B1F8D13E
:100260000020704701387047002D06BF354603381F
:10027000073815F0010F07D1013015F4807F02BF58
:10028000013015F4C03F0130F0BC0138704700BFA9
:1002900081F0004102E000BF83F0004330B54FEA37
:1002A00041044FEA430594EA050F08BF90EA020FA4
:1002B0001FBF54EA000C55EA020C7FEA645C7FEA37
:1002C000655C00F0E2804FEA5454D4EB5555B8BF5A
:1002D0006D420CDD2C4480EA020281EA030382EACB
:1002E000000083EA010180EA020281EA0303362D5D
:1002F00088BF30BD11F0004F4FEA01314FF4801C30
:100300004CEA113102D0404261EB410113F0004F41
:100310004FEA03334CEA133302D0524263EB4303F8
:1003200094EA050F00F0A780A4F10104D5F1200E96
:100330000DDB02FA0EFC22FA05F2801841F10001F1
:1003400003FA0EF2801843FA05F359410EE0A5F1C5
:1003500020050EF1200E012A03FA0EFC28BF4CF0F6
:10036000020C43FA05F3C01851EBE37101F00045AC
:1003700007D54FF0000EDCF1000C7EEB00006EEBB9
:100380000101B1F5801F1BD3B1F5001F0CD3490843
:100390005FEA30004FEA3C0C04F101044FEA44529A
:1003A00012F5800F80F09A80BCF1004F08BF5FEA21
:1003B000500C50F1000041EB045141EA050130BD01
:1003C0005FEA4C0C404141EB010111F4801FA4F1A4
:1003D0000104E9D191F0000F04BF01460020B1FAF9
:1003E00081F308BF2033A3F10B03B3F120020CDA31
:1003F0000C3208DD02F1140CC2F10C0201FA0CF00F
:1004000021FA02F10CE002F11402D8BFC2F1200C73
:1004100001FA02F120FA0CFCDCBF41EA0C01904029
:10042000E41AA2BF01EB0451294330BD6FEA040472
:100430001F3C1CDA0C340EDC04F11404C4F120025D
:1004400020FA04F001FA02F340EA030021FA04F36F
:1004500045EA030130BDC4F10C04C4F1200220FAC6
:1004600002F001FA04F340EA0300294630BD21FA04
:1004700004F0294630BD94F0000F83F4801306BFCA
:1004800081F480110134013D4EE77FEA645C18BFBE
:100490007FEA655C29D094EA050F08BF90EA020F55
:1004A00005D054EA000C04BF1946104630BD91EA4D
:1004B000030F1EBF0021002030BD5FEA545C05D150
:1004C0004000494128BF41F0004130BD14F580048F
:1004D0003CBF01F5801130BD01F0004545F0FE4103
:1004E00041F470014FF0000030BD7FEA645C1ABF38
:1004F000194610467FEA655C1CBF0B46024650EA6F
:10050000013406BF52EA033591EA030F41F400219A
:1005100030BD00BF90F0000F04BF0021704730B520
:100520004FF4806404F132044FF000054FF00001F5
:1005300050E700BF90F0000F04BF0021704730B5B6
:100540004FF4806404F1320410F0004548BF40428B
:100550004FF000013EE700BF42004FEAE2014FEAE0
:1005600031014FEA02701FBF12F07F4393F07F4FBB
:1005700081F06051704792F0000F14BF93F07F4FED
:10058000704730B54FF4607401F0004521F0004130
:1005900020E700BF50EA010208BF704730B54FF0B6
:1005A00000050AE050EA010208BF704730B511F0BB
:1005B000004502D5404261EB41014FF4806404F1F3
:1005C00032045FEA915C3FF4DCAE4FF003025FEA75
:1005D000DC0C18BF03325FEADC0C18BF033202EBFD
:1005E000DC02C2F1200300FA03FC20FA02F001FA57
:1005F00003FE40EA0E0021FA02F11444C1E600BFF6
:1006000070B54FF0FF0C4CF4E06C1CEA11541DBFA8
:100610001CEA135594EA0C0F95EA0C0F00F0DEF873
:100620002C4481EA030621EA4C5123EA4C5350EA58
:10063000013518BF52EA033541F4801143F48013A9
:1006400038D0A0FB02CE4FF00005E1FB02E506F03A
:100650000042E0FB03E54FF00006E1FB03569CF08F
:10066000000F18BF4EF0010EA4F1FF04B6F5007F95
:1006700064F5407404D25FEA4E0E6D4146EB060607
:1006800042EAC62141EA55514FEAC52040EA5E5090
:100690004FEACE2EB4F1FD0C88BFBCF5E06F1ED83A
:1006A000BEF1004F08BF5FEA500E50F1000041EB71
:1006B000045170BD06F0004646EA010140EA02001E
:1006C00081EA0301B4EB5C04C2BFD4EB0C0541EA40
:1006D000045170BD41F480114FF0000E013C00F355
:1006E000AB8014F1360FDEBF002001F0004170BD79
:1006F000C4F10004203C35DA0C341BDC04F1140492
:10070000C4F1200500FA05F320FA04F001FA05F21D
:1007100040EA020001F0004221F0004110EBD370EA
:1007200021FA04F642EB06015EEA430E08BF20EA16
:10073000D37070BDC4F10C04C4F1200500FA04F3B9
:1007400020FA05F001FA04F240EA020001F000414B
:1007500010EBD37041F100015EEA430E08BF20EABE
:10076000D37070BDC4F1200500FA05F24EEA020E06
:1007700020FA04F301FA05F243EA020321FA04F035
:1007800001F0004121FA04F220EA020000EBD370EC
:100790005EEA430E08BF20EAD37070BD94F0000FEC
:1007A0000FD101F00046400041EB010111F4801F20
:1007B00008BF013CF7D041EA060195F0000F18BFD1
:1007C000704703F00046520043EB030313F4801F0D
:1007D00008BF013DF7D043EA0603704794EA0C0FC7
:1007E0000CEA135518BF95EA0C0F0CD050EA4106DD
:1007F00018BF52EA4306D1D181EA030101F000415A
:100800004FF0000070BD50EA410606BF1046194681
:1008100052EA430619D094EA0C0F02D150EA01368D
:1008200013D195EA0C0F05D152EA03361CBF1046CE
:1008300019460AD181EA030101F0004141F0FE416D
:1008400041F470014FF0000070BD41F0FE4141F4F1
:10085000780170BD70B54FF0FF0C4CF4E06C1CEAF1
:1008600011541DBF1CEA135594EA0C0F95EA0C0FA6
:1008700000F0A7F8A4EB050481EA030E52EA033561
:100880004FEA013100F088804FEA03334FF0805582
:1008900045EA131343EA12634FEA022245EA1115AF
:1008A00045EA10654FEA00260EF000419D4208BF60
:1008B000964244F1FD0404F5407402D25B084FEA0D
:1008C0003202B61A65EB03055B084FEA32024FF4B9
:1008D00080104FF4002CB6EB020E75EB030E22BF16
:1008E000B61A754640EA0C005B084FEA3202B6EBD6
:1008F000020E75EB030E22BFB61A754640EA5C0085
:100900005B084FEA3202B6EB020E75EB030E22BF14
:10091000B61A754640EA9C005B084FEA3202B6EB15
:10092000020E75EB030E22BFB61A754640EADC00D4
:1009300055EA060E18D04FEA051545EA16754FEA36
:1009400006164FEAC30343EA52734FEAC2025FEA54
:100950001C1CC0D111F4801F0BD141EA00014FF0E3
:1009600000004FF0004CB6E711F4801F04BF0143B4
:100970000020B4F1FD0C88BFBCF5E06F3FF6AFAED0
:10098000B5EB030C04BFB6EB020C5FEA500C50F160
:10099000000041EB045170BD0EF0004E4EEA1131E3
:1009A00014EB5C04C2BFD4EB0C0541EA045170BDEA
:1009B00041F480114FF0000E013C90E645EA060E2E
:1009C0008DE60CEA135594EA0C0F08BF95EA0C0F5C
:1009D0003FF43BAF94EA0C0F0AD150EA01347FF4A4
:1009E00034AF95EA0C0F7FF425AF104619462CE77B
:1009F00095EA0C0F06D152EA03353FF4FDAE1046DE
:100A0000194622E750EA410618BF52EA43067FF42E
:100A1000C5AE50EA41047FF40DAF52EA43057FF4BE
:100A2000EBAE12E74FF0FF3C06E000BF4FF0010CC9
:100A300002E000BF4FF0010C4DF804CD4FEA410C2D
:100A40007FEA6C5C4FEA430C18BF7FEA6C5C1BD0FA
:100A500001B050EA410C0CBF52EA430C91EA030F7B
:100A600002BF90EA020F0020704710F1000F91EAD8
:100A7000030F58BF994208BF90422CBFD8176FEAA6
:100A8000E37040F0010070474FEA410C7FEA6C5C74
:100A900002D150EA013C07D14FEA430C7FEA6C5C7B
:100AA000D6D152EA033CD3D05DF8040B704700BFA7
:100AB0008446104662468C461946634600E000BFF5
:100AC00001B5FFF7B7FF002848BF10F1000F01BDC7
:100AD0004DF808EDFFF7F4FF0CBF012000205DF892
:100AE00008FB00BF4DF808EDFFF7EAFF34BF012017
:100AF00000205DF808FB00BF4DF808EDFFF7E0FFB0
:100B000094BF012000205DF808FB00BF4DF808ED00
:100B1000FFF7CEFF94BF012000205DF808FB00BF67
:100B20004DF808EDFFF7C4FF34BF012000205DF849
:100B300008FB00BF4FEA410C7FEA6C5C02D150EA2F
:100B4000013C0AD14FEA430C7FEA6C5C02D152EAC5
:100B5000033C02D14FF0000070474FF00100704796
:100B60004FEA410212F5001215D211D56FF47873D5
:100B7000B3EB625212D94FEAC12343F0004343EA78
:100B8000505311F0004F23FA02F018BF4042704753
:100B90004FF00000704750EA013005D111F00040DD
:100BA00008BF6FF0004070474FF00000704700BF73
:100BB00053B94AB9002908BF00281CBF4FF0FF31C4
:100BC0004FF0FF3000F07AB9ADF1080C6DE904CEBA
:100BD00000F006F8DDF804E0DDE9022304B0704718
:100BE0002DE9F0478C460D460446089E002B51D156
:100BF0008A4217466DD9B2FA82FEBEF1000F0BD0C1
:100C0000CEF1200C01FA0EF520FA0CFC02FA0EF7D8
:100C10004CEA050C00FA0EF44FEA174A250CBCFB0F
:100C2000FAF81FFA87F90AFB18CC45EA0C4508FBCD
:100C300009F3AB420AD9ED1908F1FF3280F02381A4
:100C4000AB4240F22081A8F102083D44ED1AA4B263
:100C5000B5FBFAF00AFB105544EA054400FB09F91C
:100C6000A14509D9E41900F1FF3380F00A81A145BB
:100C700040F2078102383C44A4EB090440EA0840F2
:100C80000021002E61D024FA0EF40023346073603A
:100C9000BDE8F0878B4207D9002E54D0002186E8AA
:100CA00021000846BDE8F087B3FA83F1002940F03F
:100CB0008E80AB4202D3824200F2FA80841A65EB46
:100CC00003050120AC46002E3FD086E81010BDE899
:100CD000F08712B90127B7FBF2F7B7FA87FEBEF12A
:100CE000000F34D1EB1B3A0C1FFA87FC0121B3FB38
:100CF000F2F8250C02FB183345EA03450CFB08F318
:100D0000AB4207D9ED1908F1FF3002D2AB4200F235
:100D1000D1808046ED1AA3B2B5FBF2F002FB10556C
:100D200043EA05440CFB00FCA44507D9E41900F193
:100D3000FF3302D2A44500F2B8801846A4EB0C049D
:100D400040EA08409DE731463046BDE8F087CEF1E5
:100D5000200405FA0EF307FA0EF720FA04F83A0C0D
:100D600025FA04F448EA0308B4FBF2F14FEA184507
:100D700002FB11441FFA87FC45EA044501FB0CF312
:100D8000AB4200FA0EF409D9ED1901F1FF3080F001
:100D90008A80AB4240F2878002393D44EB1A1FFA49
:100DA00088F5B3FBF2F002FB103345EA034500FB84
:100DB0000CF3AB4207D9ED1900F1FF386FD2AB420B
:100DC0006DD902383D44EB1A40EA01418FE7C1F189
:100DD000200722FA07F88B4005FA01F448EA0303DA
:100DE00020FA07FE4FEA134CFD404EEA040EB5FB15
:100DF000FCF94FEA1E440CFB19551FFA83F844EA2C
:100E0000054509FB08F4AC4202FA01F200FA01FAC6
:100E100008D9ED1809F1FF3043D2AC4241D9A9F10C
:100E200002091D442D1B1FFA8EFEB5FBFCF00CFBC6
:100E300010554EEA054400FB08F8A04507D9E41810
:100E400000F1FF3529D2A04527D902381C4440EAD9
:100E50000940A4EB0804A0FB02894C45C6464D4658
:100E600015D312D056B1BAEB0E0364EB050404FAA5
:100E700007F7CB401F43CC40376074600021BDE8CA
:100E8000F0871846F8E69046E0E6C245EAD2B8EBAD
:100E9000020E69EB03050138E4E72846D7E7404630
:100EA00091E78146BEE7014678E702383C4445E7D2
:100EB000084608E7A8F102083D442BE7704700BF49
:100EC000704710B5044600F095F9E2B220213220B7
:100ED00000F0DCF9002223213220BDE8104000F0B0
:100EE000D5B908B500F086F90F213220BDE80840D9
:100EF00000F0CEB908B52421322000F0C9F960F025
:100F00007F02D2B224213220BDE8084000F0BEB9F1
:100F100010B521210446322000F0BAF900F00C028D
:100F2000224321213220BDE8104000F0AFB910B5B6
:100F300021210446322000F0ABF900F0F7022243F1
:100F400021213220BDE8104000F0A0B92DE9F3477F
:100F500023210746322000F09BF924210446322049
:100F600000F096F92821322000F092F929214FFA59
:100F700080FA322000F08CF92A214FFA80F83220D2
:100F800000F086F92B2146B2322000F081F92C21A5
:100F900045B2322000F07CF92D214FFA80F9322041
:100FA00000F076F9630640B228D40AEB082806EB75
:100FB0000525ADF80080ADF8025009EB002004F0E3
:100FC0003004202CADF8040023D0302C23D0102C7A
:100FD0000CBF02230123BDF800209BB212FB03F2D9
:100FE0003A80BDF8022012FB03F27A80BDF804209B
:100FF00012FB03F3BB8002B0BDE8F08708EB0A28C0
:1010000005EB0625ADF80080ADF8025000EB092095
:10101000D5E70423DFE70C23DDE710B521210446E3
:10102000322000F035F900F0FB022243212132206A
:10103000BDE8104000F02AB910B522210446322044
:1010400000F026F940EA0402D2B222213220BDE8A3
:10105000104000F01BB910B538210446322000F0D2
:1010600017F940EA0402D2B23821322000F00EF91A
:101070000A223A21322000F009F905223B213220D0
:1010800000F004F905223C21322000F0FFF8322262
:101090003D211046BDE8104000F0F8B808B500F05A
:1010A000CBF88020FFF7C8FF0420FFF7B6FF102021
:1010B000BDE80840FFF7CFBF70B52B4C88B0204685
:1010C00001F048F9054600284BD1284B2360432303
:1010D000E360274B274E63604FF480430190A0608C
:1010E0006061A061E06120622361336C43F400130E
:1010F0003364336C03F400130193019B0290336B50
:1011000043F002033363336B059003F00203029351
:10111000029B19484FF41073039312230493022384
:10112000069303A90423079300F0CCFB336A43F42E
:1011300000133362336A23F4001333622A460F210B
:101140001F2000F05DFB1F2000F08EFB2A460F21C0
:10115000202000F055FB202000F086FB204600F008
:10116000CBFE08B070BD00BF9C03002000540040BF
:10117000A086010000380240000402407FB506AAA4
:10118000002302F8013D0B4B1B68029301238DE8FD
:101190000C000A460146084800F0CCFF20B1064882
:1011A00000F018FFFFF788FF9DF8170007B05DF803
:1011B00004FB00BF340000209C03002010B586B063
:1011C00006AC0A4B04F8012D1B68029301230A4662
:1011D000019301460094064800F016FF20B1044830
:1011E00000F0F8FEFFF768FF06B010BD34000020E5
:1011F0009C0300207FB500230D4A0093116B0D481E
:1012000041F010011163126B029302F01002009280
:10121000009A0393042202230DEB0201019204932E
:1012200000F050FBFFF748FF07B05DF804FB00BF7C
:10123000003802400010024010B586B00024104B68
:1012400000941A6B0F4842F010021A631B6B039450
:1012500003F010030093009B302301930A4B029389
:1012600001A90223049300F02DFB22460F210A203E
:1012700000F0C6FA0A2000F0F7FA06B010BD00BF71
:10128000003802400010024000001110FFF796BF26
:10129000FFF774BF38B5094CA368984733280BD1C2
:1012A000074D23682C6040F6470098472B68902034
:1012B0009B6A9847002038BD012038BD00000020FF
:1012C000F003002038B5084D2B681B6B044653B162
:1012D00098472A68054B9A4205D1B4F900306288D4
:1012E00022805B42638038BDF003002000000020B4
:1012F0007047000008B50268024B9A4201D1FFF71F
:10130000F7FF08BD003C00407047704708B5FFF785
:10131000FCFF08BD704700000268074B9A4210B5F9
:10132000044601D1FFF7F0FF2268044B9A4201D135
:10133000FFF7F0FF10BD00BF003C00400038004048
:1013400008B50B4B1A6842F400721A601A6842F42E
:1013500080621A601A6842F480721A60032000F0FA
:101360003DFA002005F05AFE05F010FE002008BDF1
:10137000003C0240034A044B11681B780B44136085
:10138000704700BF7C41002038000020014B1868E6
:10139000704700BF7C41002038B50446FFF7F6FFD8
:1013A000631C1CBF054B1B78054618BFE418FFF7EC
:1013B000EDFF401B8442FAD838BD00BF3800002042
:1013C00010B50446002800F09980036C23B94364EB
:1013D00080F83C3005F072F8236CDB0600F18C805D
:1013E000236C23F4885323F0020343F002032364A5
:1013F000434B5A6822F440325A605A6861680A4383
:101400005A60236821695A6822F480725A605A68C7
:1014100042EA01225A605A68A16822F040725A607A
:101420005A680A435A609A68E16822F400629A6036
:101430009A680A439A603349A26A8A4250D09968EE
:1014400021F07061996099680A439A609A68E16A2C
:1014500022F040529A609A680A439A609A68A16999
:1014600022F002029A609A6842EA41029A60226A75
:10147000002A3DD05A68616A42F400625A605A6894
:1014800022F460425A605A68013942EA41325A6095
:10149000DA6AE16922F47002DA62DA6A013942EA50
:1014A0000152DA629A68216B22F400729A609A689B
:1014B00042EA41229A609A68616922F480629A60E5
:1014C0009A68002042EA81229A606064236C23F0CB
:1014D000030343F001032364002384F83C3010BD70
:1014E0009A6822F070629A609A6822F04052B4E7DB
:1014F0005A6822F40062CAE70120EDE7012010BD1E
:10150000002301400100000F82B00023019390F8F6
:101510003C30012B4ED0012380F83C3003689A68A0
:10152000D10705D59A68D20714D4002002B07047BD
:101530009A68214942F001029A60204A1268B2FB7F
:10154000F1F202EB42020192019A002AEAD0019ADA
:10155000013AF8E7026C22F4E06222F0010242F460
:10156000807202645A68510541BF026C22F44052F5
:1015700042F480520264026C12F480521CBF426C2E
:1015800022F006024264002280F83C206FF0220222
:101590001A600B4A5268D20608D1986810F0405081
:1015A000C3D19A6842F080429A60BFE7054A9342ED
:1015B000BBD1F2E70220B9E740420F005C010020F6
:1015C000002301400020014090F83C30012B17D04F
:1015D000012380F83C3003689A6822F001029A6087
:1015E0009B68DB0707D4036C23F4885323F00103C3
:1015F00043F001030364002380F83C301846704731
:101600000220704703689A6870B5560504460D4677
:101610000BD59B68D80508D5236C43F020032364C1
:10162000002384F83C30012070BDFFF7AFFE064672
:1016300023681A6892070CD56FF012021A60226CA8
:1016400042F4007222649A6812F0405F13D00020C6
:1016500070BD691CEDD045B9236C43F004032364CD
:10166000002384F83C30032070BDFFF78FFE801B01
:101670008542DDD2F0E7A269002AE8D1DA6A12F4E5
:10168000700F02D09B685B05E1D4236C23F4807358
:101690002364206C10F48050D9D1236C43F00103F3
:1016A000236470BD0368D86C70470000F7B5002351
:1016B000019390F83C30012B6AD00D6804688A6869
:1016C0000123092D80F83C30AEB22AD906EB46033F
:1016D000E7681E3B4FF0070E0EFA03FE27EA0E07DF
:1016E000E760E76802FA03F33B43E3604A68062ACF
:1016F0004FEA820325D81344676B591F1F238B4081
:1017000027EA03036363626B06FA01F11143616325
:101710002D4B9C4234D0002380F83C30184603B057
:10172000F0BD276905EB45034FF0070E0EFA03FEE7
:1017300027EA0E072761276902FA03F33B43236177
:10174000D4E70C2A0ED81344216BA3F123021F23E4
:10175000934021EA03032363236B06FA02F21A4340
:101760002263D5E71344E16A413B1F229A4021EAF4
:101770000202E262E26A06FA03F11143E162C7E79C
:10178000122D07D1114A536843F480035360C2E716
:101790000220C4E70E4B9D4201D0112DBBD10B4955
:1017A0004A689D4242F400024A60B4D1094B0A4A99
:1017B0001B68B3FBF2F20A2353430193019B002BF6
:1017C000A9D0019B013BF8E7002001400023014024
:1017D000120000105C01002040420F00074AD3684D
:1017E00023F4E0631B041B0C43F0BF63000243F4CB
:1017F000003300F4E0600343D360704700ED00E085
:10180000174B30B5DC68C4F30224C4F10703251D6F
:10181000042B28BF0423062D4FF0010505FA03F31E
:1018200003F1FF338CBF033C00241940A14005FAAB
:1018300004F4013C2240002842EA01024FEA02126D
:10184000AFBF00F1604000F00F00064BD2B2A5BF61
:1018500000F56140D2B21A5480F8002330BD00BFB9
:1018600000ED00E014ED00E04209012300F01F004C
:1018700003FA00F0014B43F82200704700E100E05A
:101880000138B0F1807F0AD2064B074A5860F02138
:1018900082F823100020072298601A607047012008
:1018A000704700BF10E000E000ED00E0044B1A6854
:1018B00004280CBF42F0040222F004021A607047B0
:1018C00010E000E02DE9F04F85B00B68DFF89C8157
:1018D000644A01934FF001090023019C09FA03F7C0
:1018E00007EA0406B74240F0AD804C6824F0100AC5
:1018F000BAF1020F16D14FEAD30C00EB8C0C03F0B7
:10190000070BDCF820504FEA8B0B4FF00F0E0EFA4E
:101910000BFE25EA0E0E0D6905FA0BF545EA0E05DC
:10192000CCF820504FEA430C0325D0F800B005FA5C
:101930000CF5ED4304F0030E0BEA050B0EFA0CFE5A
:101940000AF1FF3A4EEA0B0EBAF1010F0095C0F80A
:1019500000E015D8D0F808E005EA0E0ECD6805FACB
:101960000CFA4AEA0E0EC0F808E0D0F804E02EEABD
:101970000707C4F3001E0EFA03FE4EEA070747608E
:10198000C768009D3D408F6807FA0CF73D43C5606E
:10199000E50057D54FF0000BCDF80CB0D8F84470E7
:1019A000314D47F48047C8F84470D8F8447007F4C4
:1019B00080470397039F23F0030707F1804707F54C
:1019C0009C3703F0030CD7F808A04FEA8C0C4FF0BB
:1019D0000F0E0EFA0CFEA8422AEA0E0E39D005F5BB
:1019E0008065A84237D005F58065A84235D005F559
:1019F0008065A84233D005F58065A84214BF07254D
:101A0000042505FA0CF545EA0E05BD601568F74397
:101A100014F4803F0CBF3D4035431560556814F405
:101A2000003F0CBF3D4035435560956814F4801F5E
:101A30000CBF3D4035439560D568A40254BF3D407E
:101A40003543D5600133102B7FF447AF05B0BDE8B7
:101A5000F08F5D46D5E70125D3E70225D1E70325C1
:101A6000CFE700BF003C01400000024000380240C8
:101A70002DE9F04F364CDFF8E0B000224FF00109BD
:101A80004FF0030A4FF00F0C09FA02FE3EEA010381
:101A900051D1550003680AFA05F5ED43D7082B40EC
:101AA00000EB8707036002F007063B6AB6000CFAFA
:101AB00006F623EA06063E6283682B40836046688A
:101AC0006FEA0E031E404660C6683540C56022F0CE
:101AD000030505F1804505F59C3502F00307AE6866
:101AE000BF000CFA07F806EA080E1A4EB04227D0DB
:101AF00006F58066B04225D006F58066B04223D058
:101B000006F58066B04221D058450CBF0426072652
:101B1000BE40B6450FD1AE6826EA0806AE6025681D
:101B20001D40256065681D406560A5681D40A56075
:101B3000E5682B40E3600132102AA5D1BDE8F08FA3
:101B40000026E5E70126E3E70226E1E70326DFE7D3
:101B5000003C014000000240001002400AB18161D7
:101B600070470904FBE70268536913F480630DD0E2
:101B70006FF4806353610423036420220023036312
:101B800080F83C3080F83D200120704718467047AF
:101B90002DE9F843044617469946C1F307488EB22B
:101BA0002568B8F1010F0CBF6B69AB6936EA030316
:101BB00014BF0120002008B9BDE8F8836B695A05FD
:101BC00012D52B6843F400732B606FF480636B6154
:101BD0000423236420220023236384F83C3084F808
:101BE0003D200120BDE8F8837B1CD9D04FB90023EC
:101BF0002022236384F83C3084F83D200320BDE894
:101C0000F883FFF7C3FBA0EB09008742C8D2EEE7D9
:101C10002DE9F843089E044690461F46C1F3074944
:101C20008DB22368B9F1010F0CBF5B699B6935EA7E
:101C300003030CBF01230023434502D00020BDE86D
:101C4000F8837B1CEDD05FB900232022236384F846
:101C50003C3084F83D20032084F83E30BDE8F88312
:101C6000FFF794FB801B8742DBD2EDE770B504469B
:101C70000D46164623685B691B0601D5002070BD22
:101C80002046FFF770FFA8B96A1CF3D065B9236C32
:101C900043F02003236420220023236384F83C3094
:101CA00084F83D20032070BDFFF770FB801B854248
:101CB000E0D2ECE7012070BD2DE9FF411546026836
:101CC0000B9E9846136843F4807313600F4600968A
:101CD0000A9B00224FF001110446FFF799FF68B9F3
:101CE00023680A9A1C4907F0FE071F612046334605
:101CF000FFF74EFF30B1236C042B18D0032004B043
:101D0000BDE8F081236803905A6903929B690393AD
:101D100032460A99039B2046FFF7A8FF48B1236C7F
:101D2000042BEBD12268136843F400731360012085
:101D3000E5E7B8F1010F236802D1EDB21D61DEE7DE
:101D40002A0A1A610A9932462046FFF78FFF0028B7
:101D5000E5D12368F1E700BF020001002DE9FF4152
:101D6000984603680B9D16461A6842F480621A6012
:101D70001A6842F480721A600F4600950A9B00228E
:101D80004FF001110446FFF743FF80B923682F4944
:101D9000FFB207F0FE021A6120462B460A9AFFF7AF
:101DA000F7FE40B1236C042B01D1012000E0032099
:101DB00004B0BDE8F081236803905A6903929B69DF
:101DC00003932A460A99039B2046FFF74FFF40B131
:101DD000236C042BEBD12268136843F40073136067
:101DE000E3E7B8F1010F236824D1F6B21E612A4659
:101DF0000A992046FFF73AFF02460028E8D12168F9
:101E00000B6843F480730B60204600950A9B4FF0EB
:101E10000111FFF7FDFE0028C9D123680A9A0B497A
:101E200047F001071F6120462B46FFF7B1FE00284F
:101E3000B8D1BDE7320A1A610A992A462046FFF74F
:101E400015FF0028C4D12368CFE700BF02000100BE
:101E500070B504460D4616462068436913F04003EA
:101E600001D0002070BD4269D2060BD56FF0100280
:101E700042612022236484F83C302363012084F8EB
:101E80003D2070BD5DB9236C43F020032364202303
:101E900084F83D30002384F83C30032070BDFFF708
:101EA00075FA801B8542D7D2EDE770B504460D4622
:101EB000164623685B695B0701D5002070BD20468C
:101EC000FFF751FEA8B96A1CF3D065B9236C43F043
:101ED0002003236420220023236384F83C3084F809
:101EE0003D20032070BDFFF751FA801B8542E0D2F0
:101EF000ECE7012070BD000070B50446002862D0F8
:101F000090F83D3003F0FF021BB980F83C2004F04C
:101F10007FFE22682D4E2E4D242384F83D30136819
:101F200023F00103136001F0FFFA63682268B0FB3D
:101F3000F5F5B34284BF4FF496716943556091BF84
:101F4000691C4FF47A75B1FBF5F10131B3421162AE
:101F500021D85B00B0FBF3F0C0F30B03032B98BF59
:101F60000420216AE369D0610B431360E1682369AF
:101F70000B439360A16963690B43D360136843F01B
:101F80000103136000202023206484F83D30206387
:101F900084F83E0070BDA16849B903EB4303B0FB70
:101FA000F3F0C0F30B0363B140F40040D9E719210B
:101FB0004B43B0FBF3F0C0F30B0313B140F44040CC
:101FC000CFE70120CDE7012070BD00BFA086010052
:101FD00040420F0010B5044698B10268242380F8EF
:101FE0003D30136823F00103136004F03BFE002032
:101FF000206484F83C0084F83D00206384F83E00AF
:1020000010BD012010BD00002DE9F34704469A469B
:10201000884691460C9EFFF7B9F994F83D30202B85
:10202000054603D0022002B0BDE8F08700901923D6
:1020300001223E492046FFF7EBFD0028F2D194F83B
:102040003C30012BEED0012384F83C3023681A6821
:10205000D2075EBF1A6842F001021A601A6822F4C1
:1020600000621A60212384F83D30402384F83E301A
:102070000A9B63620027BDF82C30276463852C4BD4
:10208000E362638D23850195009653464A46414697
:102090002046FFF711FE00282AD0236C84F83C70FC
:1020A000042B07D10120BEE7FFF7E0FD20B1236C30
:1020B000042B34D00320B6E7616A2768228D4B1CBD
:1020C00063620B783B61638D013B9BB263857B69E7
:1020D000501E80B25B0720850AD548B18B1C636215
:1020E0004B783B61638D013B023A9BB2228563854D
:1020F000238D2A4631462046002BD5D1FFF7D5FE49
:102100000028D4D12268136843F40073136020239D
:1021100084F83D3084F83C0084F83E0083E7226870
:10212000136843F400731360BCE700BF02001000A3
:102130000000FFFF2DE9F047044686B09A460D46A1
:102140009146109FFFF722F994F83D30202B064668
:1021500004D00225284606B0BDE8F0870090192378
:10216000012279492046FFF753FD0028F1D194F868
:102170003C30012BEDD0012384F83C3023681A68F1
:10218000D2075EBF1A6842F001021A601A6822F490
:1021900000621A60222384F83D30402384F83E30E8
:1021A0000E9B63624FF00008BDF83C30C4F84080DD
:1021B0006385664BE362638D23852946019600970C
:1021C00053464A462046FFF7C9FD054630B1236C09
:1021D00084F83C80042B3AD10125BBE7228D23688B
:1021E00092B902905A6902929A690292029A1A6806
:1021F00042F400721A60202384F83D30002384F8F2
:102200003E3084F83C30A5E7012A22D11A6822F436
:1022100080621A6003905A6903929A690392039A42
:102220001A6842F400721A60DFF82481238D002BB3
:10223000E1D0032B6BD8012B23D1324639462046FF
:10224000FFF706FE002839D0236C202BC4D10325CC
:1022500080E7022A0ED11A6822F480621A601A6896
:1022600042F400621A6004905A6904929B690493D4
:10227000049BD9E705905A6905929B690593059BD4
:10228000D2E7022B00963B464FF000024146204623
:1022900022D1FFF7BDFC0028D9D123681A6842F487
:1022A00000721A60626A1B69511C61621370238D8F
:1022B000013B2385638D013B9BB26385636A5A1C96
:1022C0006262226812691A70238D013B2385638D37
:1022D000013B9BB26385A9E7FFF79AFC0246002801
:1022E000B5D12368196821F480611960616A1B699E
:1022F000481C60620B70238D0096013B2385638D23
:10230000013B9BB2638541463B462046C1E73246CE
:1023100039462046FFF79CFD002895D1636A5A1C78
:102320006262226812691A70238D2268013B23853C
:10233000638D013B9BB2638553695B077FF576AF85
:10234000636A591C6162BDE7020010000000FFFFD4
:102350000400010090F83D007047000070B504468D
:1023600000283FD00225414B80F84150436304F0E0
:10237000D5FC2268D36923F47B6323F00F03D36178
:1023800063691562022BD56935D0E368002BA36819
:1023900014BF202610260120202B98BF760001F0C4
:1023A000A1F923696169B3F5007F1FD1E3680A22AF
:1023B000D3B1B300B0FBF3F353430A22B3FBF1F301
:1023C0000533B3FBF2F303F001021202C3F34F0330
:1023D000991EFD2911D9636C43F0100363642046F4
:1023E000FEF79AFF012070BDF300E3E70A23B0FB7C
:1023F000F6F04343E1E70022EAE71343226920684D
:10240000666813430362E268A3681343A269134337
:102410009BB246F400611943226A89B20D43012A36
:10242000C5611CD1124A62631249134A884218BF1F
:102430004FF0402236F40070D16921F47B6121F025
:102440000F01D1614FF002011162D1690CBF4FF44D
:102450008070002043F4006303430B43D3610020EA
:102460000123606484F8413070BD00BF7D24000802
:102470008925000800380040003400401FB503687B
:102480009A68019290F84120042A04463AD1019AB0
:10249000D10719D55A68520616D5C26A911CC16275
:1024A000D9681180428E013A92B24286428E92B22F
:1024B00052B95A6822F060021204120C5A600123C9
:1024C00080F84130FEF722FF019B59061AD5236898
:1024D0005A68920616D55A6822F060021204120C4D
:1024E0005A6000220292DA6802929B680293029B71
:1024F000012384F84130636C43F002036364204697
:10250000FEF70AFF94F84130032B3AD1019B9B0759
:102510001BD522685368180617D5636A991C1B8857
:102520006162D360638D013B9BB26385638D9BB217
:102530005BB9536823F0A0031B041B0C53600123F9
:1025400084F841302046FEF7D5FE019B190718D5C7
:1025500023685A68920614D55A6822F0A002120421
:10256000120C5A60002203929B680393039B012381
:1025700084F84130636C43F0040363642046FEF743
:10258000CBFE04B010BD70471FB5036892499A682E
:102590000092924A8B4218BF4FF040220446916845
:1025A0000191D96901F44071B1F5007F04D0D96976
:1025B00011F4407F40F09780009A92071DD55A6829
:1025C00010061AD5626A911C12886162DA60628D07
:1025D000013A92B26285628D92B272B95A6822F063
:1025E000A0021204120C5A60638E9BB22BB9012315
:1025F00084F841302046FFF7C6FF019BD90722D55A
:10260000754A2168754B914218BF4FF040235A68B4
:10261000520618D5E26A911CE162D9681180628E77
:10262000013A92B26286628E92B262B95A6822F020
:1026300060025A60638D9BB22BB9012384F841304C
:102640002046FFF7A0FF019B580624D56249236866
:10265000624A8B4218BF4FF04022516889061AD552
:10266000516821F0600151605A6822F0A002120402
:10267000120C5A6000220292DA6802929B6802935E
:10268000029B012384F84130636C43F002036364CE
:102690002046FEF741FE009B1B0722D523685A689F
:1026A00090061ED55A684C4922F0A0021204120C62
:1026B0005A604A4A8B4218BF4FF04022516821F0BD
:1026C00060015160002203929B680393039B0123E6
:1026D00084F84130636C43F0040363642046FEF7E2
:1026E0001BFE04B010BD019B99071AD553681B0649
:1026F00017D5436A991C1B884162D360438D013B07
:102700009BB24385438D9BB25BB9536823F0A00312
:102710005360438E9BB223B9012380F84130FFF709
:1027200032FF009BD8071ED52268536859061AD578
:10273000E36A991CE162D1681980638E013B9BB208
:102740006386638E9BB273B9536823F060031B04E6
:102750001B0C5360638D9BB22BB9012384F841306D
:102760002046FFF710FF009B5A061DD522685368CC
:102770009B0619D55368184923F060031B041B0CF2
:102780005360164B8A4218BF4FF0402320465A68C8
:1027900022F0A0025A60012384F84130636C43F0B8
:1027A00002036364FEF7B8FD019B180799D50A4937
:1027B00022680A4B8A4218BF4FF0402359688906A5
:1027C0008FD5596821F0A0015960536823F0600348
:1027D0001B041B0C53607AE70038004000340040B3
:1027E000F0B506468BB0002864D00323344680F849
:1027F000B93304F019FE54F8100B01F099FA0FCC1C
:102800006D460FC50FCC0FC594E8030085E80300A3
:10281000371D97E80E00306801F04AFA0021306851
:1028200001F08CFA00213346324606F110040125EE
:10283000084682F83810D18701310F2982F83950C3
:1028400082F83B0010645064D06402F11C02F0D1A5
:102850000022D6F800E0114602F1400083F8F8218A
:10286000DA870EEB800001320F2A83F8F91183F822
:10287000FB11C3F80012C3F80412C3F80C12416034
:1028800003F11C03E8D10FCC6D460FC50FCC0FC56B
:1028900094E8030085E80300704697E80E0001F015
:1028A00065FA012386F8B933306801F082FD002013
:1028B0000BB0F0BD0120FBE790F8B833012B10B549
:1028C00004460CD0012380F8B833006801F065FDA0
:1028D000206801F027FA002084F8B80310BD022018
:1028E00010BD00002DE9F04FD0F8009087B00446ED
:1028F000484601F098FD0290002840F02E812068A3
:1029000001F063FD002800F02881206801F05DFDE2
:10291000850748BF2268206842BF536903F002035D
:10292000536101F052FD10F400250AD0206801F037
:1029300050FD09F530660746A2460025002F40F0FD
:102940000F81206801F041FD41030BD5206801F0A3
:1029500048FD2646039009F510680025039B002BCF
:1029600040F03F81206801F030FD00280DDAD9F8F1
:10297000043823F00103C9F80438204604F0D4FDDC
:102980002268536903F000435361206801F01DFD84
:1029900006050BD5D9F80838D80702D5204604F02B
:1029A000ABFD2268536903F400635361206801F0B2
:1029B0000CFDC10437D509F500667368206823F063
:1029C00001037360102101F06DFA616809F510636D
:1029D000FF220298884240F092814FF0FF33B361AA
:1029E000F36943F00113F361236B002B00F08F8137
:1029F000D6F8843043F00B03C6F88430736C43F090
:102A00000B037364D9F80038217C206823F4FE633B
:102A1000C9F8003804F56F7201F024FD226853698B
:102A200003F480535361206801F0CFFC82041DD56C
:102A3000206801F0FCFC2068C36823F47053C36075
:102A400001F059FA002840F06B812268E0604FF4F1
:102A500000736361D36843F41053D360204604F0DD
:102A60003AFD2268536903F400535361206801F072
:102A7000ACFCC3062BD52268936923F01003936145
:102A8000D9F82060C6F34343022B06F00F0840F04C
:102A9000A88147F6F0731E4214D01C2707FB084795
:102AA000C6F30A163246D7F80412484601F01FFC56
:102AB000D7F804323344C7F80432D7F810321E4432
:102AC000C7F810622268936943F01003936120688D
:102AD00001F07BFC070707D5204604F0F8FC2268CC
:102AE000536903F008035361206801F06EFCC602CD
:102AF00008D5E9B2204604F01FFD2268536903F4AB
:102B000080135361206801F060FC800208D5E9B2AF
:102B1000204604F00DFD2268536903F4001353614D
:102B2000206801F052FC410007D5204604F008FD62
:102B30002268536903F080435361206801F045FC2B
:102B400042070AD523685D686B0702D5204604F06A
:102B5000FBFC23685A6815435D6007B0BDE8F08F41
:102B6000F80738D55FFA85FB5946206801F041FC2B
:102B700010F0010F804621D0216901239942B360F2
:102B80000CD13169DAF80002C1F31201411ACAF816
:102B90001012DAF804120844CAF804025946204612
:102BA00004F084FC2169012908D13DB9D4F80C2234
:102BB00022B904F56F72206801F054FC18F0080F78
:102BC00004D0204604F06CFC0823B36018F0100F0A
:102BD0001CBF1023B36001357F0820360AF11C0AA0
:102BE000ACE6039BDA0758D55FFA85FB59462068A7
:102BF00001F009FCC307074620D5D9F83438012174
:102C0000A94023EA0103C9F834380123C8F8083081
:102C10002369012B01BF736C326C9B187364594696
:102C2000204604F04CFC2169012907D135B9E36C39
:102C300023B904F56F72206801F014FC380744BF13
:102C40000823C8F80830F90644BF1023C8F8083034
:102C50007A0644BF4023C8F80830BB0744BF0223AC
:102C6000C8F808303F0618D523680493F76C336D15
:102C7000FF1A336C9F4228BF1F46049B03F5106365
:102C800007F1030A03EB45134FEA9A0A0593059BE4
:102C90009B699BB2534508D82FB3039B5B08013552
:102CA00003931C3608F1200858E6326DF36C93420A
:102CB000F2D9002BF0D0376C04989B1A9F4228BFA2
:102CC0001F46237C00935A46BBB2716C01F0FBFA9D
:102CD000736C3B447364336D07F1030A3B444FEA62
:102CE0009A0A3365D3E7049B012203F5006BD3F8FE
:102CF0003438AA4023EA0203CBF83430CDE70298F7
:102D00009A600130C3F808220290203361E67369AB
:102D100043F00B037361336943F00B03336171E6D6
:102D20000323E3604023636100F0F8FB344B354A32
:102D300003449342236804D8DA6842F47052DA609C
:102D40008CE6314A314902448A4203D8DA6842F4B7
:102D50006052F4E7A0F574022D49A2F510528A42A0
:102D600003D8DA6842F45052E9E7A0F183722949A6
:102D7000A2F5E7428A4203D8DA6842F44052DEE71D
:102D8000254A264902448A4203D8DA6842F430527E
:102D9000D5E7234A234902448A4203D8DA6842F439
:102DA0002052CCE7204A214902448A4203D8DA68FB
:102DB00042F41052C3E7A0F1B7721D49A2F5585270
:102DC0008A4203D8DA6842F40052B8E7194A1A492D
:102DD00002448A42DA6894BF42F4E05242F4C0529C
:102DE000ADE7062B7FF46EAE082204F56F714846FE
:102DF0001C2701F07CFA07FB0847C6F30A165CE6BD
:102E0000405327FFFF340C00401E1BFF3F420F00C2
:102E10007F4F12001FD6130060B6E5FE5FE3160079
:102E200000D3CEFE3F771B00C05BB3FEBF912100F5
:102E30001F753800E05459FEDF9C410090F8B8330C
:102E4000012B10B5044609D0012380F8B83300687F
:102E500001F093FA002084F8B80310BD022010BDE1
:102E600070B54EB2002E04464FF01C0501F07F00F5
:102E7000B5BF05FB004105FB0141383101F5FC718F
:102E8000C0B2002EB8BFC880022BCB704FEAD675F7
:102E900004BF00230B7108704D7094F8B8338A603A
:102EA000012B09D0012384F8B833206801F03EF8E3
:102EB000002084F8B80370BD022070BD4BB2002B17
:102EC00010B54FF01C02044601F07F00B5BF02FBB5
:102ED000004102FB0141383101F5FC71DB0F087044
:102EE0004B7094F8B833012B09D0012384F8B83320
:102EF000206801F05AF8002084F8B80310BD0220C1
:102F000010BD38B501F07F051C2404FB050104FB4E
:102F1000050401F5FC71C4F80C320023C4F8042246
:102F2000C4F8103284F8F93184F8F8510369006864
:102F3000012B08BFC4F80822DAB21DB901F056F916
:102F4000002038BD01F08CF8FAE71C2301F00F01D6
:102F500003FB0101B1F81002704738B501F07F059D
:102F60001C2404FB050104FB05043831E364002341
:102F700023650123626484F8393084F8385003698A
:102F80000068012B08BFA264DAB21DB901F02EF966
:102F9000002038BD01F064F8FAE738B54BB2002BD9
:102FA00001F07F054FF01C02B5BF02FB050102FBDB
:102FB0000101383101F5FC710122DB0FEDB28A709D
:102FC0000D704B7090F8B833934204460FD080F8E0
:102FD000B823006801F099F92DB904F56F72217CCE
:102FE000206801F03FFA002084F8B80338BD0220C1
:102FF00038BD38B54BB2002B05464FF01C0201F02E
:103000007F00B5BF02FB005102FB0151383101F5D1
:10301000FC71DB0F00248C7008704B7095F8B8338E
:10302000012B09D0012385F8B833286801F08CF909
:1030300085F8B843204638BD022038BD006870B519
:10304000436A21B943EA02438362002070BD846A67
:10305000002503EB14434E1EECB2B44205F101050A
:1030600006DB3F3100EB810043EA02434360ECE7BB
:10307000403400EB8404646803EB1443ECE703681A
:1030800000205962704700002DE9F341044618B949
:10309000012002B0BDE8F0810368DD0710D4236889
:1030A000980758D423681A0700F19A8023685B07B1
:1030B00000F1B880A269002A40F019810020E8E7F9
:1030C000A64B9A6802F00C02042A07D09A6802F014
:1030D0000C02082A0AD15B68590207D59F4B1B686E
:1030E0009A03DCD56368002BD9D1D1E763689B4D87
:1030F000B3F5803F11D12B6843F480332B60FEF78A
:1031000045F9964D06462B689B03C8D4FEF73EF959
:10311000801B6428F7D90320BBE7B3F5A02F04D1A7
:103120002B6843F480232B60E5E72A6822F4803281
:103130002A602A6822F480222A60002BDFD1FEF761
:1031400025F906462B689F03A9D5FEF71FF9801BBA
:103150006428F7D9DFE7814B9A6812F00C0F07D08B
:103160009A6802F00C02082A11D15B685E020ED444
:103170007A4B1A68950702D5E268012A88D11A6845
:10318000216922F0F80242EAC1021A608AE7E26885
:10319000734BB2B101221A60FEF7F8F86F4D064684
:1031A0002B68980707D52B68226923F0F80343EAB8
:1031B000C2032B6076E7FEF7E9F8801B0228EFD9FF
:1031C000A9E71A60FEF7E2F8644D06462B689907F6
:1031D0007FF568AFFEF7DAF8801B0228F6D99AE788
:1031E0006269604B7AB101221A60FEF7CFF85B4D3D
:1031F00006466B6F9F073FF559AFFEF7C7F8801B78
:103200000228F6D987E71A60FEF7C0F8534D064644
:103210006B6F98077FF54AAFFEF7B8F8801B02285E
:10322000F6D978E74D4B1A6C12F0805228D10192F2
:103230001A6C42F080521A641B6C03F080530193A5
:10324000019B0126484D2B68D9051BD5A368434D2A
:10325000012B27D12B6F43F001032B67FEF796F864
:103260003E4D074641F288382B6F9B0739D5002E1B
:103270003FF420AF394A136C23F08053136419E7ED
:103280000026DFE72B6843F480732B60FEF77EF89F
:1032900007462B68DA05D9D4FEF778F8C01B022858
:1032A000F7D938E7052B04D12B6F43F004032B67C4
:1032B000D0E72A6F22F001022A672A6F22F0040267
:1032C0002A67002BCAD1FEF761F841F28838074619
:1032D0002B6F9807CBD5FEF759F8C01B4045F7D99F
:1032E00019E7FEF753F8C01B4045BDD913E71B4D46
:1032F000AB6803F00C03082B3FF4CAAE1B4E00234F
:10330000022A336034D1FEF741F807462B68990151
:103310001ED4226AE3691343626A43EA8213E26AB3
:1033200043EA0263A26A0D4C5208013A43EA02439F
:103330006B6001233360FEF729F8054623689A0184
:103340003FF5BCAEFEF722F8401B0228F6D9E2E6B4
:10335000FEF71CF8C01B0228D8D9DCE60038024072
:1033600000004742800E4742007000406000474224
:10337000FEF70CF804462B689B017FF59FAEFEF725
:1033800005F8001B0228F6D9C5E600BF134908B5A9
:103390008B6803F00C03042B03D0082B03D01048D8
:1033A00008BD104808BD4A684B68496813F480039B
:1033B00014BF0C480A48C1F3881118BF002302F05B
:1033C0003F02A1FB0001FDF7F3FB044B5B68C3F375
:1033D000014301335B00B0FBF3F008BD003802404D
:1033E0000024F40000127A002DE9F0410D46044655
:1033F00010B90120BDE8F081444B1A6802F00F02B9
:103400008A4228D321688F072DD4C80740D43F4B68
:103410001A6802F00F02954266D3226851076CD4F5
:10342000130707D53A4A2169936823F4604343EAB6
:10343000C1039360FFF7AAFF354B364A9B68C3F37D
:103440000313D35CD840344B1860002003F0E6FD32
:103450000020BDE8F081CAB21A701B6803F00F03A8
:103460009942C6D1CEE72A4B11F0040F1EBF9A68CD
:1034700042F4E0529A600E0742BF9A6842F46042FA
:103480009A609A68A06822F0F00202439A60BCE752
:1034900062681F4B012A1DD11B6813F4003FA8D09E
:1034A0001B4EB36823F003031343B360FDF76EFFB5
:1034B00041F288380746B368626803F00C03B3EB47
:1034C000820FA4D0FDF762FFC01B4045F3D9032053
:1034D000BDE8F081911E01291B6802D813F0007F1E
:1034E000DDE713F0020FDAE7EAB21A701B6803F0A7
:1034F0000F039D427FF47DAF8FE70549E0688B683D
:1035000023F4E05303438B608AE700BF003C024092
:1035100000380240528500085C010020014B186809
:10352000704700BF5C010020044B054A9B68C3F351
:103530008223D35C034A1068D840704700380240A9
:10354000628500085C010020044B054A9B68C3F3B8
:103550004233D35C034A1068D840704700380240B9
:10356000628500085C0100200F2303600B4B9A6802
:1035700002F0030242609A6802F0F00282609A68E8
:1035800002F4E052C2609B68DB0803F4E05303617D
:10359000034B1B6803F00F030B60704700380240B9
:1035A000003C0240036813F0050FF7B504463CD118
:1035B00023689A0730D500230193454B454D1A6C7B
:1035C00042F080521A641B6C03F080530193019BFC
:1035D0002B6843F480732B60FDF7D8FE06462B68FA
:1035E000D9054CD53A4D2B6F13F440734DD1236957
:1035F00003F44072B2F5407F354A65D1916823F0FB
:10360000704021F4F81120F4407001439160116F73
:10361000C3F30B030B431367206810F008001FBFB0
:103620002D4B227D1A60002027E02C4E284D0023D0
:103630003360FDF7ABFE07462B681B0117D4E36828
:10364000A2681B0743EA821362681343C5F88430FB
:1036500001233360FDF79AFE1D4D06462B681801C5
:10366000A6D4FDF793FE801B0228F7D904E0FDF7EE
:103670008DFEC01B0228DFD9032003B0F0BDFDF78B
:1036800085FE801B0228AAD9F6E7226902F440725F
:103690009342ACD02B6F124A0121116023F4407386
:1036A000002111602B672B6FDA07A0D5FDF76EFEA6
:1036B00041F2883706462B6F9B0798D4FDF766FECC
:1036C000801BB842F7D9D7E7916821F4F8119DE73C
:1036D0000038024000700040E01147426800474255
:1036E000400E4742012821D1114B9A6812F4000282
:1036F00004D0012A0F4818BF002070475A680C49AF
:10370000D3F884005302D1F884204CBF0A4B0B4BF2
:1037100000F03F00B3FBF0F3D1F88400C2F388124D
:103720005343C0F30270B3FBF0F0704700207047C2
:10373000003802400080BB0000127A000024F40030
:1037400010B50446002836D00023836290F851302B
:1037500003F0FF021BB980F8502003F0F1FB216851
:10376000A068A269022384F851300B6823F040035B
:103770000B6063680343E0680343206903436069A7
:103780000343E0690343206A0343A06A034302F44E
:10379000007003430B60120C636A02F004021A43C8
:1037A0004A60CB6923F40063CB610020012360658C
:1037B00084F8513010BD012010BD0000036A23F0D1
:1037C00001030362036A70B5446882690D6822F0E0
:1037D00073022A438D6823F002032B430A4DA8424B
:1037E0000BD1CD688E6923F008032B434D6924F477
:1037F0004074354323F004032C43446082614A68DB
:103800004263036270BD00BF00000140036A23F4FD
:1038100080730362036A70B54468C2690D6822F060
:1038200073022A438D6823F4007343EA05230B4D8A
:10383000A8420DD1CD688E6923F4006343EA0523C5
:103840004D6924F44054354323F4806344EA05145D
:103850004460C2614A68C263036270BD00000140F7
:10386000036A23F480530362036A30B54468C26973
:103870000D6822F4E64242EA05228D6823F40053E3
:1038800043EA0533064DA84202BF4D6924F4804443
:1038900044EA85144460C2614A680264036230BD30
:1038A0000000014070470368DA6842F00102DA6004
:1038B0001A6842F001021A60002070477047704792
:1038C0007047704703681A69910710B504460ED512
:1038D000DA6892070BD56FF002021A619B69012228
:1038E0009B07027677D0FFF7EAFF00232376236851
:1038F0001A69500710D5DA6851070DD56FF0040228
:103900001A619B69022213F4407F2276204668D018
:10391000FFF7D5FF0023237623681A6912070FD516
:10392000DA6810070CD56FF008021A61DB6904220F
:103930009907227620465AD0FFF7C1FF002323764D
:1039400023681A69D20610D5DA68D0060DD56FF053
:1039500010021A61DB69082213F4407F22762046A8
:103960004BD0FFF7ACFF0023237623681A69D107F9
:1039700008D5DA68D20705D56FF001021A61204632
:1039800003F0ACFA23681A69100608D5DA68110644
:1039900005D56FF080021A61204600F088F923688F
:1039A0001A69520608D5DA68500605D56FF040024C
:1039B0001A612046FFF785FF23681A69910622D510
:1039C000DA6892061FD56FF0200220461A61BDE822
:1039D000104000F06BB9FFF771FF2046FFF770FF52
:1039E00083E7FFF76BFF2046FFF76AFF92E7FFF7D9
:1039F00065FF2046FFF764FFA0E7FFF75FFF204663
:103A0000FFF75EFFAFE710BD224A036890420ED079
:103A1000B0F1804F0BD0A2F57C42904207D002F566
:103A20008062904203D002F58062904219D14A68C8
:103A300023F070031343174A904204D1CA6823F459
:103A40004073134318E0B0F1804FF7D0124A904210
:103A5000F4D002F580629042F0D002F5806290428C
:103A6000ECD00E4A9042E9D002F580629042E5D057
:103A700002F580629042E1D003608B68C3620B68FC
:103A80008362044B984204BF0B69036301234361C3
:103A9000704700BF000001400004004000400140AA
:103AA00010B50446A0B190F8393003F0FF021BB9FD
:103AB00080F83820FFF7F6FE022384F839302068BA
:103AC000211DFFF7A1FF012384F83930002010BD2C
:103AD000012010BD10B50446A0B190F8393003F0B4
:103AE000FF021BB980F8382003F00EFB022384F894
:103AF00039302068211DFFF787FF012384F8393012
:103B0000002010BD012010BD036A23F010030362E2
:103B1000036A70B5446882690D6822F4E64242EA9D
:103B200005228D6823F0200343EA05130B4DA842BC
:103B30000DD1CD688E6923F0800343EA05134D69EA
:103B400024F44064354323F0400344EA8504446090
:103B500082614A688263036270BD00BF0000014059
:103B600038B590F83830012B04464FF0020025D0CC
:103B7000012384F8383084F839000C2A18D8DFE89B
:103B800002F0071717171E1717172F1717174000E0
:103B90002068FFF713FE236809699A6942F008025A
:103BA0009A619A6922F004029A619A690A439A61B9
:103BB0000123002084F8393084F8380038BD2068AB
:103BC000FFF7A2FF236809699A6942F400629A61CB
:103BD0009A6922F480629A619A6942EA0122E6E7D0
:103BE0002068FFF713FE23680969DA6942F00802CA
:103BF000DA61DA6922F00402DA61DA690A43DA6129
:103C0000D6E72068FFF72CFE23680969DA6942F4D9
:103C10000062DA61DA6922F48062DA61DA6942EA22
:103C20000122ECE7036A10B501248C4023EA040367
:103C30000362036A8A401A43026210BD10B504464B
:103C400001220068FFF7EEFF2368064A934202BF95
:103C50005A6C42F400425A641A6842F001021A6037
:103C6000002010BD0000014090F83830012B10B545
:103C70004FF0020318D080F8393003680C685A6896
:103C8000496822F070025A605A6822435A609A6862
:103C900022F080029A609A680A439A60012380F8B1
:103CA0003930002380F83830184610BD704770470F
:103CB00084B038B505AD85E80E000A9B012B04469B
:103CC00026D1836B23F480338363C36823F4840396
:103CD00023F04003C360C36823F44013C360119B07
:103CE000012B02BFC36843F48013C36000F0DEFB06
:103CF000089B012B07D1A36843F00603A360A368C8
:103D000043F02003A360BDE83840002004B07047B2
:103D1000C36843F04003C36000F0C8FB4FF4803336
:103D2000A363E5E7836843F00103836000207047E5
:103D3000836823F0010383600020704708B5C368DF
:103D4000012923F0C043C36008D1C36843F0005386
:103D5000C3603220FDF720FB002008BD0029F8D108
:103D6000C36843F08043C360F3E7000084B02DE9EB
:103D7000F041044607A880E80E00119E0A9FA36B3D
:103D80008846A6B943F40013A3630023C4F8003E99
:103D9000D4F80038C4F800380C9B012B04F50065FA
:103DA0005ED1099939B9204600F09EF807E043F446
:103DB0000023A363E9E71946204600F095F8102197
:103DC000204600F06FF8204600F07EF800234FF008
:103DD000FF322B6119466B614FF09040AA614FF0A2
:103DE000FF0EEB6104F5106243453BD1002104F561
:103DF000306208464FF0904E4FF0FF0C8B423ED1A0
:103E00002B69012F23F480732B6108D1234B2B6383
:103E10002B6B43F4803343F003032B632B6B0023A2
:103E2000A3616FF0804363611FB9A36943F010037E
:103E3000A361A2691A4B1343A3610D9B1BB1A36934
:103E400043F00803A361012E01BFA36943F080433F
:103E500043F00403A361BDE8F041002004B07047C3
:103E60000321A0E7D2F800C0BCF1000FB4BF10607E
:103E7000116001331161C2F808E02032B4E7D2F8D2
:103E80000080B8F1000FB4BFC2F800E0106001314B
:103E90001061C2F808C02032B0E700BF0001800006
:103EA00000383C80890141F02001064A0161013A55
:103EB00005D0036913F02003F9D118467047032099
:103EC000704700BF410D03001023064A0361013A09
:103ED00005D0036913F01003F9D118467047032089
:103EE000704700BF410D0300D0F800381943C0F8F7
:103EF00000180020704700F50062D0F8080810F0A4
:103F0000060012D0936803F00603022B0CD09368CE
:103F100003F00603062B07D0936803F00603042B77
:103F200014BF0020022070470320704730B54B7843
:103F30000C78D0F81C5800F50062012B1BD1A3406F
:103F40009BB22B4300F51060D36100EB44131A6859
:103F500012040ED48A68C8781D68C2F30A0242F0BF
:103F6000805242F4004242EA804040EA84502843B2
:103F70001860002030BD4FF48033A34000F530605E
:103F80002B4300EB4410D36103681B04F1D48B680E
:103F9000C9780268C3F30A0343F0805343F4004333
:103FA00043EA814313430360E3E700F001B80000F4
:103FB00070B54B78012B0E46054609784FF020036B
:103FC00026D100F5106213FB01231A6822F4004287
:103FD0001A604FF000621A604FF080421A601F4A68
:103FE000013A01D1032070BD9C6814F08044F7D1E0
:103FF00010212846FFF756FF3178D5F81C280123F9
:104000008B409BB222EA0303C5F81C38204670BDE2
:1040100000F5306213FB01231A6822F400421A6093
:104020004FF000621A604FF080421A600B4A013A6A
:10403000D8D0986810F01000F9D1D5F8043843F4BE
:104040008063C5F80438D5F81C384FF480328A40B4
:1040500023EA0203C5F81C3870BD00BF410D030000
:10406000F7B54B780C78012B4B6977D1202600F5FA
:10407000106516FB04542669002B38D126F0FF5634
:1040800026F4C0162661266946F4002626612669B4
:10409000F60CF6042661012A50D10C780E6905EB66
:1040A00044146661CE78012E0FD1D0F808480F78FD
:1040B00014F4807F4FF0200414FB075427680CBFD2
:1040C00047F0005747F0805727600F7805EB4715FA
:1040D000012E2C6844F004442C6005D100929BB260
:1040E0003A46C96800F0EFF8002003B0F0BDF60CC6
:1040F000F604266126698F6826F0FF5626F4C0165E
:104100002661DE19013EB6FBF7F7374ED4F810E012
:1041100006EAC74646EA0E0626612769C3F3120679
:104120003E432661CE78012E5AD1266926F0C0463C
:104130002661266946F000562661ACE7CE78012E4E
:10414000B3D0002BAED091F800E0D0F83478012441
:1041500004FA0EF43C43C0F83448A3E700F5306598
:1041600005EB44142569ED0CED042561256925F066
:10417000FF5525F4C01525618D68FBB92369C5F38A
:1041800012051D432561236943F400232361012A9D
:1041900004BFCB686361CB78012B0AD1D0F8083813
:1041A00013F4807F23680CBF43F0005343F0805327
:1041B0002360236843F00443236095E70A4E276990
:1041C0002B44013BB3FBF5F306EAC3463E432661AD
:1041D0009BB226695D43C5F3120535432561D6E7D9
:1041E000012AAED159E700BF0000F81F4B78012B20
:1041F00070B50B784D6943D1202400F5106614FB8F
:1042000003631C69CDB924F0FF5424F4C0141C616D
:104210001C6944F400241C611C69E40CE4041C6166
:104220000D7806EB4513012A1C6844F004441C6019
:104230001BD10A695A61002070BDE40CE4041C61C2
:104240001C6924F0FF5424F4C0141C618C68A5423E
:1042500088BF4C611C6944F400241C614C691D69D1
:10426000C4F312042C431C61DAE74B69002BE2D043
:10427000D0F834280123AB401343C0F83438DAE7D0
:1042800000F5306000EB43100369DB0CDB040361D5
:10429000036923F0FF5323F4C01303618B6805B156
:1042A0004B61046944F4002404610469C3F31203FC
:1042B0002343012A036104BFCB684361036843F0D1
:1042C00004430360B7E710B59DF808404CB90333C9
:1042D00000F5805023F0030300EB02320B449942B7
:1042E00001D1002010BD51F8040B1060F7E7033234
:1042F00022F003020A4400F58050914201D10846A1
:104300007047036841F8043BF7E74B780A78012BC4
:104310004FF020030BD100F5106013FB020003687F
:10432000002B0BDB036823F08043036006E000F5FD
:10433000306013FB02000368002BF3DA036843F4D8
:1043400000130360002070474B780A78012B0CBFE4
:1043500000F5106000F53060202313FB02000368B5
:1043600023F400130360CB78023B012B9EBF03684C
:1043700043F08053036000207047D0F8003823F4E6
:10438000FE63C0F80038D0F80038090101F4FE617E
:104390001943C0F800180020704708B5D0F8043859
:1043A00023F00203C0F804380320FCF7F5FF0020D7
:1043B00008BD08B5D0F8043843F00203C0F804384B
:1043C0000320FCF7E9FF002008BD42698069104026
:1043D0007047D0F8183800F50060C0691840000C2C
:1043E0007047D0F8183800F50060C069184080B2F6
:1043F000704700F5306303EB411100F500608A68F7
:1044000040691040704710B5D0F81048D0F83438E3
:1044100000EB4110CB4000F51060DB018068DBB29F
:104420002343184010BD406900F001007047D0F8E8
:10443000003923F4FF6323F00703C0F8003900F5C7
:1044400000639A6802F00602042A02BFD0F800292D
:1044500042F00302C0F800295A6842F480725A60A0
:104460000020704710B50024C0F8104BD0F8104B56
:1044700044F40024C0F8104BD0F8104B44F018045A
:10448000C0F8104BD0F8104B012900F5306344F010
:10449000C04408BF4FF08023C0F8104B04BFC0F8E1
:1044A000142BC0F8003B002010BD00000A4B013B5C
:1044B00001D1032070470269002AF8DA0369064A2D
:1044C00043F001030361013AF3D0036913F00103E0
:1044D000F9D11846704700BF410D0300D0F81832DB
:1044E0001BB10020C3F81402704702207047D0F8B7
:1044F0001C3210B5D0F818425BB194F80002FF28C6
:1045000007D09B6894F8012221469847FF2384F83E
:104510000032002010BD0000432303800048704794
:10452000740000204323038000487047B800002037
:104530004323038000487047080100200A230380BA
:1045400000487047FC00002038B50546D0F81842F6
:1045500003F0BAF8D5F81832C4F80C024BB1D5F80C
:104560001C32D4F80402DB6804F50371984700207C
:1045700038BD022038BD0000F8B50F7817F0600391
:1045800006460C4623D0202B19D1CA884B78C2B1DD
:104590003906D0F818520BD5D0F81C1218468F687F
:1045A0002946B847E2882946304600F09AFB06E0E3
:1045B00085F8003285F80122294600F0A7FB00208B
:1045C000F8BDD0F81C0284681846A047F7E74B787E
:1045D0000A2BF4D101220149E7E700BFF4030020D0
:1045E00010B58121044603F007F80121204603F0AD
:1045F00003F88221204602F0FFFFD4F8183253B1AD
:10460000D4F81C325B689847D4F8180203F00EF90E
:104610000023C4F81832002010BDF8B5037C04460E
:104620007BBB4FF400730222812102F0D5FF4FF4CF
:10463000007302220121204602F0CEFF082303224C
:104640008221204602F0C8FF4FF4077003F0E6F81D
:104650000646C4F8180220B3D4F81C321B689847E9
:10466000277C0025C6F81452C6F8185287B94FF4B3
:104670000073D6F804220121204603F017F83846CB
:10468000F8BD40230222812102F0A6FF4023D0E79B
:104690004023D6F804220121204603F007F82846DB
:1046A000F8BD0120F8BD19B1C0F81C1200207047F8
:1046B00002207047D0F818320020C3F80812C3F85F
:1046C00010227047D0F818320020C3F80412704747
:1046D000D0F8182210B572B1D2F81442012364B98F
:1046E000C2F814328121B2F81032D2F8082202F056
:1046F000CFFF204610BD022010BD184610BDD0F8D7
:10470000182210B562B1047C44B94FF40073D2F89A
:104710000422012102F0CAFF002010BD4023F6E769
:10472000022010BD08B580B1D0F8143213B10023B7
:10473000C0F8143209B1C0F81012012380F8FC311E
:10474000027002F005FF002008BD022008BD19B16B
:10475000C0F81412002070470220704708B502F01C
:104760002DFF002008BD08B5D0F814320BB9022087
:1047700008BD1B6898470028F9D108BD08B5D0F8D6
:1047800014325B689847002008BD38B5044600F530
:104790000275284600F075FA012394F80812C4F84F
:1047A000F431B4F80E32C4F8F83101F01F03012BD4
:1047B0000ED007D3022B10D001F08001204602F06A
:1047C00029FF03E02946204600F0E6F8002038BD26
:1047D0002946204600F0DAF9F8E72946204600F09D
:1047E000EDF9F3E738B50446154611BBD0F8F431BE
:1047F000032B0FD1D0F80C31D0F8102193420BD9F4
:104800009B1A9A4228BF1A46C0F80C3192B2294628
:1048100000F08BFA002038BDD0F814321B6923B1A8
:1048200090F8FC21032A00D19847204600F085FA31
:10483000F0E7D0F814329B69002BEBD090F8FC2104
:10484000032AE7D19847E5E770B5134604460E46BC
:1048500000293DD1D0F8F421022A0FD1C569026A9E
:10486000954214D9AA1AC261194692B200F046FACA
:1048700033461A461946204602F018FF94F80032D3
:10488000012B02D1002384F80032002070BD83691F
:10489000B3FBF2F502FB153565B99A420AD8D0F898
:1048A000F821934206D22A4600F028FAC4F8F851BB
:1048B0002B46DEE7D4F81432DB682BB194F8FC21E8
:1048C000032A01D120469847204600F041FAD5E757
:1048D000D0F814325B69002BD7D090F8FC21032A62
:1048E000D3D19847D1E738B5002204461146402578
:1048F000402302F071FE2B46C4F8105100228021A3
:10490000204602F069FE012384F8FC31D4F8183205
:1049100025622BB1D4F8143221795B682046984780
:10492000002038BD01740020704790F8FC3180F8F9
:10493000FD31042380F8FC310020704790F8FD31F0
:1049400080F8FC310020704708B590F8FC21032A5C
:1049500004D1D0F81432DB6903B19847002008BDB8
:1049600000207047002070470020704708B50122E2
:1049700080F8FC21D0F81422017952689047002079
:1049800008BD10B58021044602F044FE20460021F7
:10499000BDE8104002F03EBE37B54B7804460D46E8
:1049A000092B79D8DFE813F0C900E5007800D900B9
:1049B00078006D000A007800B9008D004B881A0A53
:1049C000013A062A68D8DFE802F0041C2967674923
:1049D0005200D0F810321B68207C0DF10601984778
:1049E000BDF80620002A67D0EB88002B64D09A42DD
:1049F00028BF1A46ADF806200146204600F071F99E
:104A00005AE0027CD0F8143232B99B6A0DF10600EC
:104A1000984702234370E3E7DB6AF7E7DBB2052B35
:104A20003AD8DFE803F003070B0F1317D0F8103262
:104A30005B68D1E7D0F810329B68CDE7D0F8103230
:104A4000DB68C9E7D0F810321B69C5E7D0F810322F
:104A50005B69C1E7D0F810329B69BDE7037CDBB925
:104A6000D0F814320DF106005B6B9847B8E7037C71
:104A700093B9D0F814320DF106001B6B9847072349
:104A8000C8E78B8843B9CB8833B990F8FC318D786F
:104A9000032B05F07F0503D12046FFF772FF0BE0E3
:104AA00080F8FE51294602F0E5FD204600F045F968
:104AB0002DB1022384F8FC31002003B030BD012366
:104AC000F8E78978304D01292970E5D890F8FC3154
:104AD000022B0CD0032BDFD1B1B9022380F8FC31BB
:104AE0004160FFF74BFE204600F027F9E4E700297C
:104AF000F9D001210323416080F8FC312046FFF703
:104B000032FE0228EFD1C7E741680129EBD0C9B2D4
:104B1000FFF734FE29786160F0E7CA88012ABBD12B
:104B200090F8FC31022B03D0032BB5D1011D64E7B3
:104B30000146002341F8083F5FE790F8FC31023B53
:104B4000012BA9D80123C360D0F804320BB1032391
:104B5000C360022204F10C014FE74B88012BABD15B
:104B6000C4F80432D4F8143229469B68204698478A
:104B7000B9E790F8FC31023B012B8DD84B88012B13
:104B80009AD10023ECE700BFF503002038B590F878
:104B9000FC31032B04460D460DD10B79012B0AD8AD
:104BA000D0F814329B689847EB8813B9204600F080
:104BB000C4F8002038BDFFF7E4FEFAE770B50A78C4
:104BC0008E8802F06002202A04460D46F3B205D119
:104BD000D0F814329B689847002070BD4A78012AAB
:104BE0001CD02AD3032AF7D190F8FC21022A40D006
:104BF000032A02D0FFF7C5FEEEE74A8822B95E0617
:104C000002D0194602F006FDD4F8143229469B68FA
:104C100020469847204600F090F8DDE790F8FC2108
:104C2000022A26D0032AE5D14A88002AD4D159067F
:104C3000F0D0194602F0FCFCE6E790F8FC21022ACD
:104C400017D0032AD6D103F07F0516F0800F00EBB2
:104C50000515194614BF143505F5827502F0F6FCEA
:104C600068B101232B6002222946204600F039F862
:104C7000B2E75A06B0D0194602F0CCFCACE7286087
:104C8000F1E70B7803704B784370CA788B7803EBAD
:104C9000022343804A790B7903EB02238380CA798C
:104CA0008B7903EB0223C380704730B588B105468A
:104CB0002B1A15F8014BDBB2002CF9D15B00023343
:104CC00013800B7003234B700138022310F8015F2F
:104CD00005B930BD5A1CD2B2CD540233DBB28C546C
:104CE000F4E710B513460222C0F8F42183610A46A6
:104CF000C361002102F0CCFC002010BD08B51346B2
:104D00000A46002102F0C4FC002008BD10B513467D
:104D10000322C0F8F421C0F808310A46C0F80C316B
:104D2000002102F0C3FC002010BD08B513460A465E
:104D3000002102F0BBFC002008BD08B50423C0F828
:104D4000F43100231A46194602F0A2FC002008BDE7
:104D500008B50523C0F8F43100231A46194602F0BD
:104D6000A5FC002008BD08B500F094FF002008BD98
:104D700030B5B0F90840028A0B4690E8220085B0B1
:104D8000842C14BF0334002403A801900094284607
:104D900000F0B0FE01280CBF0398002005B030BD24
:104DA00008B5002808BF012001F0C2F8002008BDA6
:104DB000002203C800F0EEBB1FB50024019103944C
:104DC000A24208BF0122EFF30583ABB1234603AA39
:104DD00001A900F0B7FC012802D0FF2004B010BDEB
:104DE000039B3BB1074B4FF080521A60BFF34F8FCC
:104DF000BFF36F8F0020F1E701A900F0EDFB012860
:104E0000EBD1F7E704ED00E0F0B585B000260446ED
:104E1000174608460391029601AD11B9802301930C
:104E200017E00096EFF30583D3B16A4602A900F0BC
:104E3000AFFD012804BF10230193009B18BF01960A
:104E40003BB10D4B4FF080521A60BFF34F8FBFF351
:104E50006F8F95E8070084E80700204605B0F0BD95
:104E600002A900F0D1FC012801D11023D7E7002FBF
:104E70000CBF00234023D2E704ED00E008B501F0A9
:104E80009BF9012803D0BDE8084000F00BB908BD2C
:104E900000F1080343604FF0FF32C3600361002359
:104EA00082600360704700230361704743684B6072
:104EB0009A688A609A685160996003680861013352
:104EC000036070470A68531C30B50AD103695A68F9
:104ED0004A6091608B605960036808610133036028
:104EE00030BD00F108035C682568AA42EFD3234671
:104EF000F9E74168826803698A608268516059688D
:104F0000884208BF5A6000220261186801381860A0
:104F1000704700000A4B1B68013308D04FF0500364
:104F200083F31188BFF36F8FBFF34F8FFEE74FF00E
:104F3000500383F31188BFF36F8FBFF34F8FFEE7EA
:104F40004C01002006480068006880F3088862B6BB
:104F500061B6BFF34F8FBFF36F8F00DF00BF00005C
:104F600008ED00E0DFF80C00016841F47001016019
:104F70007047000088ED00E04FF0807340F8043C7B
:104F8000074B40F80C3C21F001016FF0020340F8A0
:104F9000081C40F8202C40F8243C4438704700BFDF
:104FA000154F000800000000000000000000000095
:104FB000074B19680868B0E8F04F80F30988BFF321
:104FC0006F8F4FF0000080F311887047AFF30080BF
:104FD000144000204FF0500383F31188BFF36F8F0C
:104FE000BFF34F8F0A4A13680133012B13600DD1B1
:104FF000084B1B6813F0FF0F08D04FF0500383F3EA
:105000001188BFF36F8FBFF34F8FFEE7704700BF6C
:105010004C01002004ED00E0084A136843B94FF04A
:10502000500383F31188BFF36F8FBFF34F8FFEE7F9
:10503000013B13600BB983F3118870474C010020CA
:10504000EFF30980BFF36F8F154B1A681EF0100F36
:1050500008BF20ED108A20E9F04F10604DF8043DA4
:105060004FF0500080F31188BFF34F8FBFF36F8F65
:1050700000F0BCFF4FF0000080F3118808BC1968F5
:105080000868B0E8F04F1EF0100F08BFB0EC108AAF
:1050900080F30988BFF36F8F704700BFAFF30080C4
:1050A0001440002008B54FF0500383F31188BFF37C
:1050B0006F8FBFF34F8F00F031FE18B1034B4FF0ED
:1050C00080521A60002383F3118808BD04ED00E0CC
:1050D000064B4FF47A721B68B3FBF2F3044A013BB0
:1050E0001360044B07221A60704700BF5C01002068
:1050F00014E000E010E000E0314B324A13B51968CB
:10510000914208D14FF0500383F31188BFF36F8FA2
:10511000BFF34F8FFEE71A682B4B9A4208D14FF02E
:10512000500383F31188BFF36F8FBFF34F8FFEE7F8
:10513000264B1A78D2B20192FF221A701B78244AA9
:10514000DBB28DF803309DF8033003F05003137089
:10515000204B07221A6000219DF80300000602F18F
:10516000FF3423D401B11A601A68120202F4E0621B
:105170001A60019B154ADBB21370174B1A6842F490
:1051800070021A601A6842F070421A60FFF7A0FFBE
:10519000124B00221A60FFF7E5FE114A136843F034
:1051A00040431360FFF7CEFEFFF7B4FE9DF80320E7
:1051B0005200D2B28DF8032001212246CCE700BF75
:1051C00000ED00E071C20F4170C20F4100E400E049
:1051D000F6030020F803002020ED00E04C01002041
:1051E00034EF00E0EFF305830F2B0ED9104A9B5CE0
:1051F000104A12789A4208D94FF0500383F311886D
:10520000BFF36F8FBFF34F8FFEE70B4B0B4A1B684B
:10521000126803F4E063934208D94FF0500383F31C
:105220001188BFF36F8FBFF34F8FFEE7704700BF4A
:10523000F0E300E0F60300200CED00E0F8030020AE
:1052400010B50F4B1A68824218D35C68191988424E
:1052500001BF4168184609195960446801198A421A
:1052600007D1084909688A421FBF516812680919A5
:1052700041609842026018BF186010BD1346E1E714
:105280000C400020FC0300202DE9F041044600F012
:105290003DFD3E493E4D0B680BBB3E4A56071FBFC6
:1052A000D01D20F0070002F570531B1A14BF0246F0
:1052B0004FF470531344083B23F00703364E0B6042
:1052C00000207060326058601860981A1360334B89
:1052D00050601860324B18604FF000432B602F680D
:1052E000274216D1002C41D004F1080358071CBFF7
:1052F00023F00703083363B1294A1668B342904686
:1053000007D8254A15686868834204D809688D4221
:1053100007D100242AE02C68002CF7D02A46254625
:10532000F1E7296814681160C21A102A0FD9E81829
:10533000410708D04FF0500383F31188BFF36F8FFC
:10534000BFF34F8FFEE742606B60FFF779FF1349B1
:105350006B680868F61A1F4386424FF00003C8F8CE
:10536000006038BF0E6008346F602B6000F068FD8D
:10537000630708D04FF0500383F31188BFF36F8F9A
:10538000BFF34F8FFEE72046BDE8F081FC0300200D
:1053900000400020000400200C40002008400020B5
:1053A0000440002010B5044670B3184A50F8043C7D
:1053B0001268134208D14FF0500383F31188BFF3F2
:1053C0006F8FBFF34F8FFEE750F8081C41B14FF0CD
:1053D000500383F31188BFF36F8FBFF34F8FFEE746
:1053E00023EA020340F8043C00F090FC084A54F819
:1053F000043C1168A4F108000B441360FFF720FF80
:10540000BDE8104000F01CBD10BD00BF00400020F2
:105410000440002070B51546026C866B044642B904
:1054200005689DB9406800F01DFF65600136A66300
:1054300070BD6DB9806802F001FAA368226C134454
:105440006268A360934201D32368A3600020EDE764
:10545000C06802F0F3F9236CE26821685B421A44E9
:105460008A42E2603EBF62689B18E360022DEDD184
:105470000EB1013EEAE73046D8E7034610B41A6C95
:10548000084662B1D9685C681144A142D96024BF62
:105490001968D960D9685DF8044B02F0CFB95DF89E
:1054A000044B704770B50446FFF794FD94F84550DF
:1054B00004F124066DB2002D14DCFF2384F845307E
:1054C000FFF7AAFDFFF786FD94F8445004F110069B
:1054D0006DB2002D12DCFF2384F84430BDE870402B
:1054E000FFF79ABD636A002BE7D0304600F0D2FD8B
:1054F00008B100F05BFE013D6DB2DCE72369002BD3
:10550000E9D0304600F0C6FD08B100F04FFE013D85
:105510006DB2DEE738B50D46044640B94FF0500392
:1055200083F31188BFF36F8FBFF34F8FFEE7FFF751
:1055300051FD206CE36B2268A2604343D1181B1A13
:1055400013446160E3600021FF23A16384F84430C9
:1055500084F8453095B9236963B104F1100000F077
:1055600099FD38B10A4B4FF080521A60BFF34F8F4C
:10557000BFF36F8FFFF750FD012038BD04F110001D
:10558000FFF786FC04F12400FFF782FCF2E700BF7E
:1055900004ED00E070B50D46064640B94FF05003EB
:1055A00083F31188BFF36F8FBFF34F8FFEE748433C
:1055B0004830FFF769FE044638B145B92060E6631C
:1055C000256401212046FFF7A5FF204670BD00F1AC
:1055D00048030360F3E700002DE9FF478946019285
:1055E0001F46044640B94FF0500383F31188BFF3C0
:1055F0006F8FBFF34F8FFEE7002940F08880036C68
:10560000002B00F084804FF0500383F31188BFF328
:105610006F8FBFF34F8FFEE7019E002E00F0828058
:105620004FF0500383F31188BFF36F8FBFF34F8F99
:10563000FEE7019D1DB9FFF7EFFC002058E016B909
:1056400002A800F069FDFFF7E7FC00F05FFBFFF741
:10565000C1FC94F84430FF2B08BF84F8448094F8D0
:105660004530FF2B08BF84F84580FFF7D5FC01A922
:1056700002A800F061FD002843D1FFF7ABFCA66B48
:10568000E56BFFF7C9FCAE4235D1019904F110007A
:1056900000F0E6FC2046FFF705FF00F0D1FB38B92B
:1056A0004FF08053CAF80030BFF34F8FBFF36F8FB6
:1056B0000126FFF78FFCA26BE36B9A4201D3022F06
:1056C000B7D13A4649462046FFF7A4FE636A1BB1AC
:1056D00004F1240000F0DEFC38B1194B4FF0805289
:1056E0001A60BFF34F8FBFF36F8FFFF795FC012058
:1056F00004B0BDE8F0872046FFF7D4FE00F0A0FB21
:10570000D6E72046FFF7CEFE00F09AFB95E7022F82
:1057100002D1E36B012B0AD100F04EFD00283FF4CB
:105720007BAF00264FF00008DFF814A0C1E74FF070
:10573000500383F31188BFF36F8FBFF34F8FFEE7E2
:1057400004ED00E02DE9F843884691461F460446E3
:1057500040B94FF0500383F31188BFF36F8FBFF34D
:105760004F8FFEE709BB036CFBB14FF0500383F38F
:105770001188BFF36F8FBFF34F8FFEE704F1240052
:1057800000F088FC002834D0B9F1000F31D001209E
:10579000C9F8000086F31188BDE8F88301356DB2C1
:1057A00084F8455025E00020F4E7022F02D1E36B96
:1057B000012B20D1FFF716FDEFF311864FF05003B8
:1057C00083F31188BFF36F8FBFF34F8FA26BE36B2F
:1057D0009A4201D3022FE6D194F845503A466DB271
:1057E00041462046FFF716FE6B1CD7D1636A002B9B
:1057F000C4D10120CEE74FF0500383F31188BFF3EB
:105800006F8FBFF34F8FFEE72DE9FF478846019268
:105810009946044640B94FF0500383F31188BFF313
:105820006F8FBFF34F8FFEE7002940F0A580036C18
:10583000002B00F0A1804FF0500383F31188BFF3D9
:105840006F8FBFF34F8FFEE7019E002E00F09A800E
:105850004FF0500383F31188BFF36F8FBFF34F8F67
:10586000FEE7636AE660002B6DD004F124005FE080
:10587000019D1DB9FFF7D0FB284667E016B902A8C5
:1058800000F04AFCFFF7C8FB00F040FAFFF7A2FB6C
:1058900094F84430FF2B08BF84F8447094F84530E6
:1058A000FF2B08BF84F84570FFF7B6FB01A902A8DB
:1058B00000F042FC002852D1FFF78CFBA56BFFF7EC
:1058C000ABFB002D45D1236833B9FFF783FB60683C
:1058D00000F082FCFFF7A0FB019904F1240000F026
:1058E000BFFB2046FFF7DEFD00F0AAFA38B94FF003
:1058F0008053CAF80030BFF34F8FBFF36F8F01267C
:10590000FFF768FBA56B002DB2D041462046E66844
:10591000FFF7B3FDB9F1000FA3D12368013DA563E3
:1059200013B900F0EFFC6060236963B104F110006B
:1059300000F0B0FB38B1154B4FF080521A60BFF346
:105940004F8FBFF36F8FFFF767FB012004B0BDE8F7
:10595000F0872046FFF7A6FD00F072FACFE7204659
:10596000FFF7A0FD00F06CFAFFF734FBA56BFFF723
:1059700053FB002DC3D17FE700F01EFC00283FF44D
:1059800063AF00260027DFF804A0B9E704ED00E0CC
:105990002DE9F84389469046054640B94FF050033B
:1059A00083F31188BFF36F8FBFF34F8FFEE771BB97
:1059B000036C63B34FF0500383F31188BFF36F8F11
:1059C000BFF34F8FFEE795F84460494676B228460C
:1059D000FFF753FD013C731CAC6313D12B690BB96A
:1059E00001200BE005F1100000F054FB0028F7D077
:1059F000B8F1000FF4D00120C8F8000087F3118837
:105A0000BDE8F883013676B285F84460E8E7FFF731
:105A1000E9FBEFF311874FF0500383F31188BFF3D5
:105A20006F8FBFF34F8FAC6B002CCCD12046E5E7D6
:105A3000064A13681968064B19B94FF0FF321A600D
:105A400070471268D268D2685268F8E718400020A0
:105A5000F0400020F8B51B4B1B4E1D680446306813
:105A600004300F46FFF745FA334640B93168174E08
:105A7000C96A32680120884022EA00023260621C52
:105A800007D137B1196812480431BDE8F840FFF773
:105A90000DBA2C441A68A542546007D90D4A106803
:105AA0001968BDE8F8400431FFF70CBA0A4A1068DB
:105AB00019680431FFF706FA084B1A68944238BF98
:105AC0001C60F8BD3841002014400020C040002078
:105AD000104100201C40002018400020F040002011
